:040000008A15BF2B73
:10000600831203132230FC00F801F901FA01FB0107
:10001600FC03031939280310FB0CFA0CF90CF80C35
:10002600F30CF20CF10CF00C031C0B28FC03031967
:100036002B287408F80775080318750FF907760852
:100046000318760FFA0777080318770FFB070F28B0
:100056007408F80775080318750FF907760803186A
:0E006600760FFA0777080318770FFB070800DC
:1000740083120313FB01FA01F901F801A001730DC6
:10008400F80D7408F8027508031C750FF902760858
:10009400031C760FFA027708031C770FFB0200019A
:1000A400031C0130A002F30D0730FC00730DF80DA2
:1000B400F90DFA0DFB0DA00D7408731C7328F802DA
:1000C4007508031C750FF9027608031C760FFA02F3
:1000D4007708031C770FFB020001031C0130A00208
:1000E4008428F80775080318750FF90776080318AC
:1000F400760FFA0777080318770FFB070001031838
:100104000130A007F30DFC0B5828720DF80DF90D02
:10011400FA0DFB0DA00D7408731CA228F8027508D3
:10012400031C750FF9027608031C760FFA02770890
:10013400031C770FFB020001031C0130A002B3284B
:10014400F80775080318750FF90776080318760F72
:10015400FA0777080318770FFB070001031801302B
:10016400A007F20D0730FC00720DF80DF90DFA0D21
:10017400FB0DA00D7408721CD128F8027508031C2D
:10018400750FF9027608031C760FFA027708031C30
:10019400770FFB020001031C0130A002E228F807DC
:1001A40075080318750FF90776080318760FFA0710
:1001B40077080318770FFB07000103180130A00725
:1001C400F20DFC0BB628710DF80DF90DFA0DFB0DAF
:1001D400A00D7408721C0029F8027508031C750F21
:1001E400F9027608031C760FFA027708031C770FCE
:1001F400FB020001031C0130A0021129F807750855
:100204000318750FF90776080318760FFA077708AD
:100214000318770FFB07000103180130A007F10D45
:100224000730FC00710DF80DF90DFA0DFB0DA00D52
:100234007408711C2F29F8027508031C750FF90244
:100244007608031C760FFA027708031C770FFB026B
:100254000001031C0130A0024029F80775080318A7
:10026400750FF90776080318760FFA07770803184D
:10027400770FFB07000103180130A007F10DFC0BF9
:100284001429700DF80DF90DFA0DFB0DA00D74086D
:10029400711C5E29F8027508031C750FF9027608B3
:1002A400031C760FFA027708031C770FFB02000188
:1002B400031C0130A0026F29F80775080318750F95
:1002C400F90776080318760FFA0777080318770FEB
:1002D400FB07000103180130A007F00D0730FC00F4
:1002E400700DF80DF90DFA0DFB0DA00D7408701CBE
:1002F4008D29F8027508031C750FF9027608031C92
:10030400760FFA027708031C770FFB020001031C27
:100314000130A0029E29F80775080318750FF90724
:1003240076080318760FFA0777080318770FFB0788
:10033400000103180130A007F00DFC0B722970189E
:10034400B1297408F80775080318750FF9077608BA
:100354000318760FFA0777080318770FFB070800CE
:10036400FB14FB1FBC29FF30F300F200F100F00086
:08037400FA0DF20CFF30080045
:06037C0000000000080073
:100382000F3083120313FC004730FD00FD0BC72919
:0A039200FC0BC72900000000080062
:0E039C00213083120313FD00FD0BD22908004F
:0E03AA00F201F101F001F801F301003008004A
:1003B80083120317B503B5033508003C0318E92970
:1003C800B503000000000000E02900000000000064
:0603D80000000000080017
:0803DE00FA1FF21300300800C1
:1003E600403083120313F0001F30F100F201F301D5
:0203F6000800FD
:1003F80083120313F801F9011030FC00710DF80D98
:10040800F90D7408F8027508031C750FF902031832
:10041800142A7408F80775080318750FF9070310EC
:0A042800F00DF10DFC0B022A080094
:100432007B15FB1F232A0130F300F201F101F001C9
:08044200FA0DF20CFF30080076
:10044A00063083120313FD00FD0B292A0000080061
:10045A0083120317A91B332A0613342A0617291BEA
:10046A00382A8612392A8616A91A3D2A06123E2ADF
:10047A000616291A422A8611432A86151618472A69
:10048A008614482A86100615BE210611A9194F2A74
:10049A000613502A06172919542A8612552A86162F
:1004AA00A918592A06125A2A061629185E2A8611E6
:1004BA005F2A86151618632A8614642A861006157A
:1004CA00BE210611161C6B2AC1216C2ACE210800F6
:1004DA007C18A32AFC18742A7C19C22A6D2AA10145
:1004EA007208031D942A7108F2007008F100780856
:1004FA00F000F801A1157208031D942A7108F20090
:10050A007008F100F001A11121167208031D942A46
:10051A007108F200F101A11572080319B62A21081F
:10052A00F302031D031CBA2A0310F21BA32AF80DB7
:10053A00F00DF10DF20DF30B9A2ABA2A7B1B701CEF
:10054A00BE2AF81FBE2AF00A0319F10A0319F20A91
:10055A00031DBE2AF20CF10CF00CF30A0319C22A8D
:10056A00BE2A0130FC00D521C52A0230FC0019221E
:10057A00C52A0430FC00EF21C52A0830FC00B2214C
:04058A000000080065
:10058E0083120317A901AB01AC011030AD0004308A
:10059E002C020318F72AF0300313880003172D09D5
:1005AE00831603138800BE21BE210F308312080567
:1005BE00F00070080317AA0070080319F12A2B081F
:1005CE00A9002A080319EF2AAA0CAA13A90AE82AD5
:1005DE000430AC00AD0D2D100430AB07AC0ACE2AA2
:0605EE002908F0000800DE
:1005F400F321E830F4000330F500F601F70103209D
:1006040070080317B1007108B2007208B3007308D0
:10061400B4002908F4002A08F500F601F7013A208D
:1006240070080317B1007108B2007208B3007308B0
:10063400B4007008F5007108F6007208F70073083A
:10064400F800F80CF70CF60CF50CF813F80CF70C92
:10065400F60CF50CF8137508F0007608F10077082D
:10066400F2007808F300F30CF20CF10CF00CF31325
:100674007008AD007108AE00F32103172B08F400D5
:100684002C08F500F601F701032003172D08F900E3
:100694002E08FA00FB01FC010330F8007908F4008D
:1006A4007A08F5007B08F6007C08F700780803193F
:1006B400622BF40DF50DF60DF70D7410FF3E592B5A
:1006C4003A2070080317B1007108B2007208B30031
:1006D4007308B4000A30F4000030F5002D08F0006F
:1006E4002E08F100FC2170080317AD007108AE005C
:1006F40000307102031D802B033070020318832B1A
:10070400D42B170884003408003C031D932B3308B2
:10071400003C031D932B3208003C031D932B31082E
:10072400003C0318D22B831603136F088004831232
:1007340003172E080319AE2BAF01B00100303002AD
:10074400031DA62B2E082F020318AE2BB501DC21A6
:10075400AF0A0319B00AA02B2D08B500DC21150837
:1007640080052E080319C62BAF01B00100303002FA
:10077400031DBE2B2E082F020318C62BB501DC2146
:10078400AF0A0319B00AB82B2D08B500DC210130DB
:10079400B102031CB202031CB302031CB402852B76
:0607A400150880050800A5
:1007AA00A1017208031DEA2B7108F2007008F1001A
:1007BA00F001A1157208031DEA2B7108F200F1017C
:1007CA00A111211672080319F82B2108F302031D3F
:1007DA00031CFC2B0310F21B002CF00DF10DF20D83
:1007EA00F30BF02BFC2B0130FC00D521032C02303B
:0E07FA00FC001922032C0430FC00EF21080043
:100808000E3083120313FD00FD0B082C00000800B6
:0E0818008312031719088A00180882000800CE
:10082600C7227008A7000F3003130805F00003194C
:0E0836001E2C2522162C03172708F0000800A0
:10084400BA3083120317A9000230AA00FA30AB00B1
:06085400AC01FA220800CD
:10085A0083120313FB017308031D77080319842C01
:10086A0072087606FA007708F3077E30031C412CDB
:10087A00F3020318872C442CF302031C8A2C7208F7
:10088A00F8007108FC007008FD00F817F61703104D
:10089A00F201F101F0011830A1007D1C5E2C7408F0
:1008AA00F00775080318750FF10776080318760F15
:1008BA00F207F20CF10CF00CF80CFC0CFD0C031016
:1008CA00A10B522CF21B6E2CF80DF00DF10DF20D4E
:1008DA00F3037B1B701C802CF81F802CF00A031971
:1008EA00F10A0319F20A031D802CF20CF10CF00C28
:1008FA00F30A0319872CFA1FF21300308C2C0130EB
:10090A00D5218C2C0230B2218C2C04301922000003
:02091A000800D3
:10091C007B14FB1F992CF201FA1FFF30F200F1003F
:0A092C00F000FA0DF20CFF30080095
:100936008312031716102708A9002D220317161471
:020946000800A7
:10094800831203172708F2007208F100F20A280838
:10095800F000A80A700884000008F00071088400FC
:10096800700880007108840000080319BC2CA82CAA
:060978002708F000080052
:10097E00263083120317A9000530AA003230AB00CF
:08098E000030AC00FA22080061
:100996008312031372087606A100F801F9017308A1
:1009A6007702031CEE2C7708FD007308F7007D081C
:1009B600F3007608FD007208F6007D08F20075085F
:1009C600FD007108F5007D08F1007408FD0070084F
:1009D600F4007D08F00077080319672D7208FA0005
:1009E600F217F61777087302F7000319212D08305E
:1009F6007702031C172DF7007408F9007508F40038
:100A06007608F500F60108307702031C172DF7006B
:100A16007408F9007508F400F50108307702031C24
:100A2600172D7A08F200672D77080319212D031078
:100A3600F60CF50CF40CF90CF70B1A2DA11F2E2D44
:100A4600F909F409F509F609F90A0319F40A03196B
:100A5600F50A0319F60A7908F80774080318740FDB
:100A6600F00775080318750FF10776080318760F57
:100A7600F207A11B472D031C572DF20CF10CF00CAD
:100A8600F80CF30F572D632D03185B2DF809F009A9
:100A9600F109F209F80A0319F00A0319F10A031910
:100AA600F20A8030FA065F2D0130FC006D22692DB6
:100AB6000230FC006D22692D0430FC00D523692D1F
:100AC6000830FC00B221692D0030FC00000008004F
:100AD600163083120317A9000430AA003230AB0087
:080AE6000030AC00FA22080008
:100AEE0083120313F8010830FC00700DF80D740822
:100AFE00F8020318842DF8070310F00DFC0B7C2D63
:020B0E000800DD
:100B1000933083120317A9000230AA00FA30AB0009
:060B2000AC01FA220800FE
:100B2600103083120317A9000330AA00FA30AB0075
:060B3600AC01FA220800E8
:100B3C0083120313FA017308031D7A147708031D3B
:100B4C00FA147A080319EA2D033A0319B52D7A1809
:100B5C00B22DF61FE82DE62DF21FE62DE82D7208BA
:100B6C008039FA00F21376088039F6137A060319E5
:100B7C00C32D7A080319E62DE82D770873020319A3
:100B8C00CA2D031CDE2DE22D760872020319D12D1D
:100B9C00031CDE2DE22D750871020319D82D031CE0
:100BAC00DE2DE22D740870020319EA2D0318E22DD4
:100BBC00FA080319E82DE62DFA080319E62DE82D9D
:100BCC0003140800031008000314031508000800A0
:100BDC00703083120317A9000330AA003230AB0027
:080BEC000030AC00FA22080001
:100BF4000C2E8030831203179A001F2EC0309A00E7
:100C04001F2E94309A001F2ED4309A001F2E80304D
:100C14009A001F2E831203171A08013A0319FB2D99
:100C24001A08023A0319002E1A08033A0319032E6C
:100C34001A08043A0319062E092E1B03F0001A0899
:100C4400F00770089A0016147008A9002D220317E3
:0E0C540016101C08A9002D2203171614080004
:100C6200831203137008F8007108F000F101F20119
:100C7200F301FB01FC019630F300FA01F01F472E4D
:100C8200F809F009F80A0319F00AFA177008F100D6
:0C0C92007808F000F801F201D5230800FA
:100C9E0083120313071687123330FB00BB30FC00A0
:100CAE00DF30FD00FD0B592EFC0B592EFB0B592E80
:060CBE0000000000080028
:100CC40083120313EF01132470080313EF00700859
:100CD4000319652E9D2E3130EF00DD2E3230EF00EA
:100CE400DD2E3330EF00DD2E4130EF00DD2E3430C9
:100CF400EF00DD2E3530EF00DD2E3630EF00DD2E37
:100D04004230EF00DD2E3730EF00DD2E3830EF00BB
:100D1400DD2E3930EF00DD2E4330EF00DD2E2A309A
:100D2400EF00DD2E3030EF00DD2E2330EF00DD2E1E
:100D34004430EF00DD2E6F08013A03196D2E6F0861
:100D4400023A0319702E6F08033A0319732E6F08C1
:100D5400043A0319762E6F08053A0319792E6F08A1
:100D6400063A03197C2E6F08073A03197F2E6F0881
:100D7400083A0319822E6F08093A0319852E6F0861
:100D84000A3A0319882E6F080B3A03198B2E6F0841
:100D94000C3A03198E2E6F080D3A0319912E6F0821
:100DA4000E3A0319942E6F080F3A0319972E6F0801
:0C0DB400103A03199A2E6F08F000080096
:100DC00083120313071287163330FB00BB30FC007D
:100DD000DF30FD00FD0BEA2EFC0BEA2EFB0BEA2EAA
:060DE00000000000080005
:0C0DE600831203138030F606CB240800B3
:0A0DF2008312031307128712080092
:100DFC000930831203179A001A08003C03180B2FB2
:0C0E0C00EE256B25BF249A03022F08007E
:100E1800831203139F01C0309F0483161F179F1767
:100E2800831203171A08F000F00D7010F00D7010FF
:100E3800F00D7010700803139F041F1404241F156D
:100E48001F1D282F0000242F1F101E08F100F0017D
:0C0E580083161E08F0040030F1040800AE
:100E640088252224932593258825222493259325B8
:100E740088252224932588252224932593258825B3
:100E840022249325932593252224222488250800AF
:100E9400903083120317A9000130AA006430AB001C
:100EA4000030AC00FA228230FC00DD30FD00FD0B86
:100EB400592FFC0B592F00000000F430A900013019
:100EC400AA004630AB000030AC00FA228230FC00AD
:100ED400DD30FD00FD0B6C2FFC0B6C2F00000000BF
:100EE4005830A9000230AA005030AB000030AC00EA
:100EF400FA228230FC00DD30FD00FD0B7F2FFC0B5D
:100F04007F2F00000000BC30A9000230AA0030305E
:100F1400AB000030AC00FA228230FC00DD30FD0072
:100F2400FD0B922FFC0B922F000000002030A90033
:100F34000330AA006630AB000030AC00FA228430E3
:100F4400A9000330AA009630AB00AC01FA2282302B
:100F5400FC00DD30FD00FD0BAD2FFC0BAD2F0000C0
:100F64000000E830A9000330AA002830AB000030AC
:060F7400AC00FA220800A7
:100F7A00831203171A0897001B08F1000130F000CA
:100F8A0071080319CC2FF00D7010FF3EC62F7008A0
:100F9A0083160313EF00F0097008831203179500F4
:100FAA0080301A0784007008800584137008800551
:020FBA0008002D
:100FBC000C248A110A128000840A980A0319990ACF
:080FCC00F003031DDE2F0800F5
:100FD400FF30831203179200FF309300FF30940018
:100FE400FF3003139F01C0309F0483161F179F1700
:060FF40083121F14080027
:1010000083120317A501A6011A08A1001B08A2005C
:101010001C08A3001D08A4002408FF3A031D1A2879
:101020002308FF3A031D1A282208FF3A031D1A2835
:101030002108FF3A031D26281E08A7006230A800D9
:101040008A11A4248A150330F000132A01309F006E
:10105000A31F352880302306F0007008A3009F0AE4
:101060001E0884002D3080009E0A0030F000240607
:10107000031D442870082306031D44287008220617
:10108000031D44282108003A031D4F281E08A7000D
:101090005C30A8008A11A4248A15F001132A2408C0
:1010A000FF3A031D5D282308003A031D5D2822082E
:1010B000003A031D5D282108003A031D69281E0817
:1010C000A7005E30A8008A11A4248A151F08F0002A
:1010D000132A0030F4000030F5000030F6007F30B5
:1010E000F7002108F0002208F1002308F20024088C
:1010F000F3008A119E258A15013003180030F00094
:1011000070080319A22803172108F0002208F10033
:101110002308F2002408F3000030F4000030F5004A
:101120002030F6008230F7008A112D248A157008CD
:101130000317A1007108A2007208A3007308A4009D
:10114000A603692803170030F4000030F5002030B2
:10115000F6008230F7002108F0002208F100230891
:10116000F2002408F3008A119E258A150130031C21
:101170000030F00070080319DC2803172108F00084
:101180002208F1002308F2002408F300CD30F40017
:10119000CC30F5004C30F6007B30F7008A112D245E
:1011A0008A1570080317A1007108A2007208A30035
:1011B0007308A400A60AA2280317FF302105F8002F
:1011C000FF302205F9007F302305FA0000302405A6
:1011D000FB007808F4007908F5007A08F6007B082F
:1011E000F700F40DF50DF60DF70D74100030210524
:1011F000F00000302205F10000302305F200FF303E
:101200002405F3007008A1007108A2007208A30071
:101210007308A40074082104F00075082204F1008A
:1012200076082304F20077082404F3007008A10074
:101230007108A2007208A3007308A4007F30240282
:10124000F0007008A0000130A4007008F40021082C
:10125000F0002208F1002308F2002408F3007408CB
:1012600003193929F00DF10DF20DF30D7010FF3E49
:1012700030297008A1007108A2007208A300730849
:10128000A4002408303EF0001E088400700880008E
:101290009E0A80302606F0008030013A7002031C5E
:1012A0005A298030063AF000803026067002031C6E
:1012B0005A2961291E0884002E3080009E0A0130C0
:1012C000A5000630A0002008003A0319BF29A40198
:1012D0002108F0002208F1002308F2002408F3009E
:1012E000F00DF10DF20DF30D7010F00DF10DF20D8A
:1012F000F30D70102108F00722080318220FF107E0
:1013000023080318230FF20724080318240FF307F8
:101310007008A1007108A2007208A3007308A4005D
:101320002108F0002208F1002308F2002408F3004D
:10133000F00DF10DF20DF30D70107008A1007108A1
:10134000A2007208A3007308A4002408303EF00035
:101350001E088400700880009E0A2508003A031DBC
:10136000BD29A6032608003A031DBD291E088400D6
:101370002E3080009E0A0130A500A0036329FF30B3
:101380001E0784000008303A031DC8299E03BF29A8
:10139000FF301E07840000082E3A031DD0299E034B
:1013A0002608003A03190F2A1E08840065308000C1
:1013B0009E0A80302606F0008030003A7002031842
:1013C000E9291E0884002D3080009E0A2608003C72
:1013D000A6002608A0002608093C0318FE290A30AA
:1013E000F4002008F0008A1177258A153030F007C4
:1013F00003171E088400700880009E0A0A30F4005B
:101400002008F0008A1177258A157808F00030301E
:10141000F00703171E088400700880009E0A1E084B
:0814200084008001F0010800C6
:10142800903083120317A9000130AA006430AB0082
:101438000030AC008A11FA228A158230FC00DD30B7
:10144800FD00FD0B252AFC0B252A00000000583062
:10145800A9000230AA003230AB000030AC008A117B
:10146800FA228A158230FC00DD30FD00FD0B3A2A95
:10147800FC0B3A2A000000002030A9000330AA0023
:101488006430AB000030AC008A11FA228A15823031
:10149800FC00DD30FD00FD0B4F2AFC0B4F2A00003D
:1014A8000000BC30A9000230AA003230AB00003086
:1014B800AC008A11FA228A158230FC00DD30FD006A
:1014C800FD0B642AFC0B642A00000000F430A9001C
:1014D8000130AA003230AB000030AC008A11FA2289
:0414E8008A15080059
:1014EC00DC3083120317A9000530AA006430AB006E
:1014FC000030AC008A11FA228A158230FC00DD30F3
:10150C00FD00FD0B872AFC0B872A00000000D03061
:10151C00A9000730AA003230AB000030AC008A11B1
:06152C00FA228A150800F6
:1015320083120313FB0173080319D62A7208FA00F7
:10154200F2178E30F302F31FD92AF309F30A083097
:101552007302031CBC2AF300F10D7208F100F201C0
:1015620008307302031CBC2AF300F10DF101730869
:10157200031D0310C42A73080319C42A0310F20CB2
:10158200F10CF30BBF2A7B1B711CCE2A031CCE2A43
:10159200F10A0319F20AF21BE52AFA1FE82AF209F4
:1015A200F109F10A0319F20AE82AF201F101E82A23
:1015B2007B14FB1FEB2AF201FA1FEB2AFF30F20029
:1015C200F100FA0DF20CEB2A0130FC00ED2A00309A
:1015D200FC00ED2AFF30FC00FC080319F32A8A11F3
:0E15E2008E248A157108F0007208F1000800CE
:1015F0000A2B8030831203179A001D2BC0309A00EB
:101600001D2B94309A001D2BD4309A001D2B803056
:101610009A001D2B831203171A08013A0319F92A9D
:101620001A08023A0319FE2A1A08033A0319012B71
:101630001A08043A0319042B072B1B03F0001A089D
:10164000F00770089A007008A9008A112D228A15E7
:10165000031716109D011D081C07840000080319BC
:101660003B2B1D081C0784000008A7008A119B243F
:0A1670008A159D0A2B2B16140800A2
:10167A0083160313061186108611061286120613A4
:10168A0083120611861006138612061286118A1113
:10169A00C1218A158A11C1218A158A11C1218A1587
:1016AA000616861506158A11BE218A1506118A1193
:1016BA00C1218A1506158A11BE218A1506118A11B9
:1016CA00C1218A1506158A11BE218A1506118A11A9
:1016DA00C1218A15861106158A11BE218A1506119D
:1016EA008A11C1218A1506158A11BE218A15061189
:1016FA000612061706158A11BE218A1506118A11C5
:10170A00C1218A150613861506158A11BE218A1566
:10171A000611861106158A11BE218A1506118A112B
:10172A00C1218A1506158A11BE218A150611861548
:10173A0006158A11BE218A1506118A11C1218A1538
:10174A00861106158A11BE218A15061106178616F4
:10175A000616861506158A11BE218A1506118A11E2
:0A176A00C1218A15031716140800A8
:0A177400FF308316031388000800FD
:10177E0078260130831603138600870183128701B2
:10178E007E308600BA230730831203179A009B011E
:10179E008A11BD278A153D230C30A9008A112D22EE
:1017AE008A15013003179A0001309B004C309C00C3
:1017BE00F82202309A0001309B0051309C00F82232
:1017CE008A11EA278A1503179001910103135B080A
:1017DE00043A031DF42B0130DB0003179A018A1122
:1017EE000C278A1570088312031790007108910058
:1017FE008A1131268A15F730F4000130F500483091
:10180E00F6007B30F7008A112D248A157008F4003B
:10181E007108F5007208F6007308F7000030F0004A
:10182E000030F1004830F2008530F3008A11F326C3
:10183E008A15992270088316E3007108E4008A1154
:10184E0031268A15700803179A0071089B007208DA
:10185E009C0073089D00E5309E0000200313EE01EE
:10186E0003136E08053A0319B72C8A1162268A15DE
:10187E007008EF008A1188258A1503136F08233A22
:10188E00031D822C6E08003A031D4E2CB72CEE035E
:10189E006E08233E840030300007F200F301031877
:1018AE00F30A6E08DF3E84000008F1000030730674
:1018BE00031D632C71087206031D662CA203EF0133
:1018CE00013003179A0003136E080A3E03179B009C
:1018DE009C018A11FA258A1502309A0003136E08AC
:1018EE000A3E03179B0003136F0803179C008A110F
:1018FE00FA258A15372C031701309A0003136E0848
:10190E000A3E03179B0003136F0803179C008A11EE
:10191E00FA258A1502309A0003136E080A3E031741
:10192E009B002A309C008A11FA258A1503136E0833
:10193E00DF3E84006F0880006E08233E8400303046
:10194E000007F100F2010318F20A00307206031DBF
:10195E00B22C6F087106031DB52CA20AEE0A372CA5
:10196E002208053A031D092D803003171106F000D9
:10197E008030033A7002031DC62CA2301002031CE5
:10198E00092D0313A201EE01013003179A00013055
:10199E009B003C309C00F82201309A000C309B00DA
:1019AE00E5309C00F82201309A000E309B00483042
:1019BE009C00F82202309A000A309B0028309C00CE
:1019CE00F8220313071586178A1132278A158A11F2
:1019DE004F268A158A11F9268A151F30FB007130A1
:1019EE00FC001E30FD00FD0BFA2CFC0BFA2CFB0B41
:1019FE00FA2C00008A11E0268A158A11F9268A151A
:101A0E008701CC2D03132208053A031D5B2D803070
:101A1E0003171106F0008030033A7002031D192DD2
:101A2E00A230100203185B2D0313A201EE01013048
:101A3E0003179A0001309B0030309C00F8220130D1
:101A4E009A000C309B00E5309C00F82201309A0081
:101A5E000E309B00A0309C00F82202309A000A3013
:101A6E009B00A4309C00F8220313071586138A11DD
:101A7E00FE268A158A114F268A158A11F9268A158D
:101A8E001F30FB007130FC001E30FD00FD0B4D2D94
:101A9E00FC0B4D2DFB0B4D2D00008A11E0268A15F7
:101AAE008A11F9268A15CC2D0313A201EE010230FC
:101ABE0003179A000A309B0066309C00F82203132D
:101ACE0087140B30FB002630FC005D30FD00FD0B53
:101ADE006E2DFC0B6E2DFB0B6E2D00000000870192
:101AEE00ED0A6D08023A031DCC2DED01A2018A11FB
:101AFE0062268A1530307002EF008A1188258A1509
:101B0E008A1162268A1530307002F100F201031C30
:101B1E00F20300307206031D962D08307106013057
:101B2E0003190030F0007008EF0070080319CC2D77
:101B3E00023003179A0001309B00BD309C00F82242
:101B4E0001309A0001309B00CE309C00F822031326
:101B5E00871403135B08013A031DB62D14220313D9
:101B6E005B08023A031DBE2D8A114A278A150313FC
:101B7E005B08033A031DC42D76220317061CC82DDD
:101B8E00C92DB02D03138701872D8613DB0A03178A
:101B9E00900191010130A9008A112D228A15013080
:101BAE0003179A0001309B00AC309C00F8220230E3
:101BBE009A0001309B00B3309C00F822ED2BE62DED
:101CF000223084004C3083120313F000EC300317C1
:101D000098000D3099008A11DE278A15A0308400D2
:101D10003F300313F0003830031798000E3099005D
:081D20008A11DE278A15080074
:021BD8000034D7
:0A1BDA0001340234033404340534EE
:101BE40043346F347234723465346334743400347F
:101BF4006C3475346D3469346E346F3473346934D1
:081C0400743465343A340034F5
:101C0C006C3475346D3469346E346F3473346934B8
:081C1C00743465343A340034DD
:081C2400203425342034003483
:0A1C2C004B34653479343A34003447
:101C3600503461347334733477346F3472346434AB
:041C46003A340034F8
:021C4A00013463
:041C4C0030340034FC
:081C500049344E3446340034DF
:081C58004E3461344E340034B7
:0E1C6000453472347234653475347234003495
:021C6E00003440
:081C7000203425342034003437
:101C780043346F34723472346534633474340034EA
:0E1C88004B3465347934203420343A3400343F
:101C9600503461347334733477346F34723464344B
:041CA6003A34003498
:101CAA00503461347334733477346F347234643437
:101CBA00203442346C346F3463346B3465346434A6
:021CCA000034E4
:101CCC00503461347334733477346F347234643415
:101CDC00203442346C346F3463346B346534643484
:021CEC000034C2
:02400E004A2F37
:00000001FF
